:100000000C9434000C943E000C943E000C943E0082
:100010000C943E000C943E000C943E000C943E0068
:100020000C943E000C943E000C943E000C943E0058
:100030000C943E000C943E000C943E000C943E0048
:100040000C943E000C943E000C943E000C943E0038
:100050000C943E000C943E000C943E000C943E0028
:100060000C943E000C943E0011241FBECFEFD8E04C
:10007000DEBFCDBF0E945B000C9464000C940000B6
:10008000CF93DF9300D0CDB7DEB79C01215031096B
:1000900028F40F900F90DF91CF9108951A82198262
:1000A00089819A818A34934088F789819A8101965F
:1000B0009A838983F5CFC2E084EF91E00E944000EB
:0C00C00085B18C2785B9F8CFF894FFCFEC
:00000001FF
